:100000000C94370E0C946B0E0C946B0E0C946B0EC0
:100010000C94E02A0C94382B0C946B0E0C946B0E01
:100020000C946B0E0C944F2A0C946B0E0C946B0E6C
:100030000C946B0E0C946B0E0C946B0E0C946B0E5C
:100040000C946B0E0C946B0E0C94361D0C94681D66
:100050000C946B0E0C946B0E0C946B0E0C946B0E3C
:100060000C946B0E0C946B0E084AD73B3BCE016E82
:1000700084BCBFFDC12F3D6C74319ABD56833DDAFF
:100080003D00C77F11BED9E4BB4C3E916BAAAABE0E
:10009000000000803F0000000000000000000000A1
:1000A0000000000000000000000000000000000050
:1000B0000000000000000000000000000000000040
:1000C00000000000000000000000E003E003E00387
:1000D000E003E003E003E003E003C003C003C0016A
:1000E000C001C001C001C001000000000000E00329
:1000F000E003E003000000000000000000003C1EE0
:100100003C1E3C1E3C1E3C1E3C1E3C1E00000000D3
:1001100000000000000000000000000000000000DF
:1001200000000000000000000000000000000000CF
:100130000000CE01CE03DE039E039C039C07FF3F1D
:10014000FF7F3807380F780F780F780EFFFFFFFF1B
:10015000F01EF01CE01CE03CE03DE0390000000037
:10016000000000000000FC03FE0FEE1FE01EE01E7A
:10017000E01EE01EE01FE00FE007F003FC01FE01BF
:10018000FE01FE01FE01FE01FE01FE3DFC3FF00FFF
:10019000E001E001000000000000033E07F78FE7E8
:1001A0008EE79EE3BCE3B8E7F8E7F0F7E03FC00175
:1001B000FF03FF07F307F30FF31EF33CF338F37865
:1001C0007FF03FE000000000000000000000E007BA
:1001D000F80F780F781F781F781F780FF00FE00F57
:1001E000801FC37FC3FBE7F3F7F1F7F0FFF07FF069
:1001F0003EF87F7CFF3FEF1F000000000000000082
:100200000000E003E003E003E003E003C003C001FB
:1002100000000000000000000000000000000000DE
:1002200000000000000000000000000000000000CE
:100230000000000000003F007C00F001E001C0036E
:10024000C00780078007800F000F000F000F000F0E
:10025000000F000F800F80078007C007C003E00178
:10026000F0017C003F000F000000007E001FC0076F
:10027000C003E001F001F000F000F8007800780021
:100280007800780078007800F800F000F000F001C5
:10029000E001C003C007001F007E00780000E003FB
:1002A000C003C001CE39FF3F7F3F20037003F80732
:1002B000780F3C1F3806000000000000000000001E
:1002C000000000000000000000000000000000002E
:1002D0000000000000000000000000000000C0015D
:1002E000C001C001C001C001C001C001FFFFFFFF8C
:1002F000C001C001C001C001C001C0010000000078
:1003000000000000000000000000000000000000ED
:1003100000000000000000000000000000000000DD
:100320000000000000000000E003E003E003E00341
:10033000E001E001E001C0018003000000000000D6
:1003400000000000000000000000000000000000AD
:10035000FE3FFE3F00000000000000000000000023
:10036000000000000000000000000000000000008D
:10037000000000000000000000000000000000007D
:10038000000000000000000000000000000000006D
:10039000E003E003E003E0030000000000000000D1
:1003A00000000F000F001E001E003C003C00780003
:1003B0007800F000F000E001E001C003C003800716
:1003C0008007000F000F001E001E003C003C00785C
:1003D000007800F00000F007F80F7C1F3E3E1E3C46
:1003E0001F7C1F7C0F780F780F780F780F780F78AD
:1003F0000F781F7C1F7C1E3C3E3E7C1FF80FF007D1
:1004000000000000000000000000F000F007F03FD6
:10041000F03FF001F001F001F001F001F001F00116
:10042000F001F001F001F001F001F001F001F00144
:10043000FF3FFF3F00000000000000000000E00F51
:10044000F83F7C3C3C003E003E003E003C003C004F
:100450007C00F800F001E003C0078007000F001ED9
:10046000003E003CFE3FFE3F000000000000000098
:100470000000F00FF81F7C1C3E003E003E003C00D8
:100480003C00F800F00FF80F7C003E001E001E003C
:100490001E001E003E007C1CF81FE01F0000000034
:1004A0000000000000007800F800F800F801F803F0
:1004B000F807F807780F781E781E783C78787878F7
:1004C000FFFFFFFF78007800780078007800780060
:1004D00000000000000000000000FC1FFC1FFC1FCB
:1004E000001E001E001E001E001EE01FF81FFC0064
:1004F0007C003E003E001E003E003E003C007C1C96
:10050000F81FE01F00000000000000000000FC01D8
:10051000FE078E0F001F001E003E003C003CF83D11
:10052000FC3F3E7F1F7E0F3C0F3C0F3C0F3C0F3EBD
:100530001F1E3E1FFC0FF003000000000000000023
:100540000000FF3FFF3FFF3F0F001E001E003C006A
:1005500038007800F000F000E001E001C003C003C3
:100560008007800F800F000F001F001F0000000099
:10057000000000000000F807FC0F3E1F1E1E1E3E7C
:100580001E3E1E1E3C1FF80FF007F80FFC1E3E3EDD
:100590001F3C1F7C0F7C0F7C1F3C3E3FFC1FF00765
:1005A00000000000000000000000F007F80F7C1EB3
:1005B0003E3C1E3C1F7C1F7C1F7C1F7C1F3C3F3E23
:1005C000FF1FEF071F001E001E003E003C00F83812
:1005D000F03FE01F000000000000000000000000ED
:1005E00000000000000000000000E003E003E00362
:1005F000E003000000000000000000000000000018
:10060000E003E003E003E00300000000000000005E
:100610000000000000000000000000000000E003F7
:10062000E003E003E0030000000000000000000021
:1006300000000000E003E003E003E003E001E0016C
:10064000E001C00380030000000000000000000083
:10065000000003000F003F00FC00F003C00F003F4C
:1006600000FE003FC00FF003FC003F000F0003003E
:10067000000000000000000000000000000000007A
:100680000000000000000000000000000000FFFF6C
:10069000FFFF000000000000FFFFFFFF0000000060
:1006A000000000000000000000000000000000004A
:1006B0000000000000000000000000E000F8007EE4
:1006C000801FE007F8017E001F007E00F801E007B0
:1006D000801F007E00F800E0000000000000000025
:1006E0000000F01FFC3F3E381F381F381E001E0060
:1006F0003C007800F000E001C003C003C007C00761
:10070000000000000000C007C007C0070000000094
:10071000000000000000F803FE0F1E1F0F3E7F3C8C
:10072000FF78EF79C773C7F38FF38FF38FF39FF3DE
:100730009FF3FF73FF7BF779003C1C1FFC0FF8034E
:1007400000000000000000000000000000000000A9
:10075000E003E003F007F007F007780F780F7C0E56
:100760003C1E3C1E3E3CFE3FFF3F1F780F780FF0C3
:1007700007F007F00000000000000000000000008B
:1007800000000000F83FFC3F3E3C1E3C1E3C1E3C6F
:100790003E3C7C3CF03FF83F7E3C1F3C1F3C0F3C06
:1007A0000F3C1F3CFE3FF83F00000000000000002F
:1007B0000000000000000000FF01FF07871F003E4F
:1007C000003C007C00780078007800780078007C9D
:1007D000007C003E003F831FFF07FF010000000078
:1007E000000000000000000000000000F07FFC7F1F
:1007F0007E781F781F780F780F780F780F780F7832
:100800000F780F780F781F781E787E78F87FE07F5A
:1008100000000000000000000000000000000000D8
:10082000FF3FFF3F003E003E003E003E003E003ED8
:10083000FE3FFE3F003E003E003E003E003E003ECA
:10084000FF3FFF3F0000000000000000000000002C
:1008500000000000FF1FFF1F001E001E001E001EE4
:10086000001E001EFF1FFF1F001E001E001E001E98
:10087000001E001E001E001E000000000000000000
:100880000000000000000000FE03FF0F871F003E75
:10089000007C007C007800F800F87FF87FF80F7883
:1008A0000F7C0F7C0F3E8F1FFF0FFE030000000028
:1008B0000000000000000000000000001F7C1F7C02
:1008C0001F7C1F7C1F7C1F7C1F7C1F7CFF7FFF7F8A
:1008D0001F7C1F7C1F7C1F7C1F7C1F7C1F7C1F7C40
:1008E0000000000000000000000000000000000008
:1008F000FF3FFF3FE003E003E003E003E003E0032A
:10090000E003E003E003E003E003E003E003E003CF
:10091000FF3FFF3F0000000000000000000000005B
:1009200000000000FC1FFC1F7C007C007C007C00A1
:100930007C007C007C007C007C007C007C007800DB
:100940007800F838F03FC03F0000000000000000D1
:1009500000000000000000001F3C1E3C3C3C783CB6
:10096000F03CE03DE03FC03F803FC03FE03FF03D16
:10097000F03C783C7C3C3E3C1F3C0F3C00000000BF
:10098000000000000000000000000000003E003EEB
:10099000003E003E003E003E003E003E003E003E67
:1009A000003E003E003E003E003E003EFF3FFF3F57
:1009B0000000000000000000000000000000000037
:1009C0001FF81FFC1FFC3FFE3FFE3FFE7FFF77FF2F
:1009D00077FFF7F7E7F7E7F3E7F3C7F307F007F079
:1009E00007F007F000000000000000000000000019
:1009F000000000000F7C0F7C0F7E0F7F0F7F8F7F2A
:100A00008F7FCF7FEF7BEF79FF79FF78FF787F785B
:100A10003F783F781F781F7800000000000000003A
:100A20000000000000000000F007FC1F3E3E1F7C9D
:100A30000F780F780FF80FF80FF80FF80FF80FF87E
:100A40000F780F781F7C3E3EFC1FF007000000006F
:100A5000000000000000000000000000FC3FFF3F1D
:100A60001F3E0F3E0F3E0F3E0F3E1F3E3F3EFC3FE0
:100A7000F03F003E003E003E003E003E003E003E95
:100A80000000000000000000000000000000000066
:100A9000F007FC1F3E3E1F7C0F780F780FF80FF811
:100AA0000FF80FF80FF80FF80F780F781F7C3E3E05
:100AB000FC1FF8077C003F000F000300000000004F
:100AC00000000000F03FFC3F7E3C3E3C1E3C1E3CD4
:100AD0003E3C3C3CFC3CF03FE03FF03DF83C7C3C85
:100AE0003E3C1E3C1F3C0F3C00000000000000008C
:100AF0000000000000000000FC07FE1F0E3E003C4E
:100B0000003C003C003EC01FF80FFE037F001F00AA
:100B10000F000F001F203E3CFC3FF01F00000000B4
:100B2000000000000000000000000000FFFFFFFFC9
:100B3000E003E003E003E003E003E003E003E0039D
:100B4000E003E003E003E003E003E003E003E0038D
:100B50000000000000000000000000000000000095
:100B60000F7C0F7C0F7C0F7C0F7C0F7C0F7C0F7C2D
:100B70000F7C0F7C0F7C0F7C0F7C1E3C1E3C3E3E8E
:100B8000FC1FF00700000000000000000000000053
:100B90000000000007F007F007F80F780F7C1E3CFC
:100BA0001E3C1E3E3C1E3C1F781F780FF80FF007BE
:100BB000F007F007E003E003000000000000000081
:100BC000000000000000000003E003F003F007F065
:100BD000E7F3E7F3E7F3E773F77BF77FFF7F7F7FC9
:100BE0007F7F7E7F7E3F3E3E3E3E3E3E00000000D9
:100BF00000000000000000000000000007F80F7C6B
:100C00001E3E3E3E3C1FF80FF007E007E003E00306
:100C1000F007F80F7C0F7C1E3E3C1F780F780FF01A
:100C200000000000000000000000000000000000C4
:100C300007F807780F7C1E3C1E3E3C1F780FF80F0C
:100C4000F007E003E003E003E003E003E003E00378
:100C5000E003E003000000000000000000000000CE
:100C600000000000FF7FFF7F0F001F003E007C00A0
:100C7000F800F000E001E003C007800F000F001E45
:100C8000003E007CFF7FFF7F0000000000000000AE
:100C90000000FF0780078007800780078007800724
:100CA000800780078007800780078007800780070C
:100CB00080078007800780078007800780078007FC
:100CC000FF07FF07000000780078003C003C001E92
:100CD000001E000F000F80078007C003C003E00163
:100CE000E001F000F000780078003C003C001E00BD
:100CF0001E000F000F0007000000F07FF000F00062
:100D0000F000F000F000F000F000F000F000F00063
:100D1000F000F000F000F000F000F000F000F00053
:100D2000F000F000F000F000F07FF07F0000C00065
:100D3000C001C001E003E003F007F0077807780F77
:100D4000380F3C1E3C1E1E3C1E3C0F380F780778A7
:100D50000000000000000000000000000000000093
:100D60000000000000000000000000000000000083
:100D70000000000000000000000000000000000073
:100D8000000000000000000000000000FFFFFFFF67
:100D9000000000000000F000000000000000000063
:100DA0000000000000000000000000000000000043
:100DB0000000000000000000000000000000000033
:100DC0000000000000000000000000000000000023
:100DD000000000000000F80FFC3F7C3C3E003E009D
:100DE0003E00FE07FE1F3E3E3E7C3E783E7C7E7C03
:100DF000FF3FCF1F00000000000000000000003C8B
:100E0000003C003C003C003C003CF83DFE3F3E3FC7
:100E10001F3E0F3C0F3C0F3C0F3C0F3C0F3C1F3C58
:100E20001E3C3E3FFC3FF03B000000000000000085
:100E30000000000000000000000000000000FE03B1
:100E4000FF0F871F003E003E003C007C007C007CC2
:100E5000003C003E003E871FFF0FFE030000000025
:100E60000000000000001F001F001F001F001F00E7
:100E70001F00FF07FF1F3F3E1F3C1F7C1F7C1F7C86
:100E80001F781F781F7C1F7C3F3C7F3EFF1FDF0FBA
:100E90000000000000000000000000000000000052
:100EA000000000000000F803FC0F3E1F1E3E1F3C28
:100EB0001F7CFF7FFF7F007C007C003C003E071F03
:100EC000FF0FFE0300000000000000000000FF0113
:100ED000E103C003C007C007C007FF7FFF7FC00753
:100EE000C007C007C007C007C007C007C007C007CA
:100EF000C007C007C007C0070000000000000000D6
:100F00000000000000000000000000000000EF07EB
:100F1000FF1F7F3E1F3C1F7C1F7C1F781F781F78A0
:100F20001F7C1F7C3F3C7F3EFF1FDF0F1E001E000B
:100F30001E007C38F83F003C003C003C003C003C7C
:100F4000003CFC3DFE3F9E3F1F3F1F3E1F3C1F3CA1
:100F50001F3C1F3C1F3C1F3C1F3C1F3C1F3C1F3CB9
:100F600000000000000000000000F001F00100009F
:100F7000000000000000E07FE07FE001E001E00110
:100F8000E001E001E001E001E001E001E001E00159
:100F9000E001E00100000000000000000000F80097
:100FA000F8000000000000000000F83FF83FF800E3
:100FB000F800F800F800F800F800F800F800F80071
:100FC000F800F800F800F800F800F800F000F07100
:100FD000E07F003C003C003C003C003C003C1F3CEF
:100FE0003E3C7C3CF83CF03DE03DC03FC03FE03F34
:100FF000F03DF83C7C3C3E3C1F3C1F3C00000000A8
:10100000000000000000F07FF001F001F001F001AD
:10101000F001F001F001F001F001F001F001F00148
:10102000F001F001F001F001F001F001F001F00138
:1010300000000000000000000000000000000000B0
:101040000000000000009EF7FFFFFFFFFFFFE7FB2F
:10105000E7F9C7F1C7F1C7F1C7F1C7F1C7F1C7F1A8
:10106000C7F1C7F100000000000000000000000010
:1010700000000000000000000000FC3DFE3F9E3F1D
:101080001F3F1F3E1F3C1F3C1F3C1F3C1F3C1F3C83
:101090001F3C1F3C1F3C1F3C0000000000000000E4
:1010A0000000000000000000000000000000F00749
:1010B000FC1F3E3E1F3C1F7C0F780F780F780F7887
:1010C0000F781F7C1F3C3E3EFC1FF0070000000015
:1010D0000000000000000000000000000000000010
:1010E0000000F83DFE3F3E3F1F3E0F3C0F3C0F3CD3
:1010F0000F3C0F3C0F3C1F3C1E3E3E3FFC3FF83F69
:10110000003C003C003C003C003C000000000000B3
:10111000000000000000EE07FE1F7E3E1E3C1E7C0D
:101120001E781E781E781E781E781E7C3E7C7E3EC1
:10113000FE1FDE0F1E001E001E001E001E0000000F
:10114000000000000000000000007F1FFF1FE71FDD
:10115000C71F871F001F001F001F001F001F001F49
:10116000001F001F001F001F000000000000000003
:101170000000000000000000000000000000FC076C
:10118000FE1F0E1E003E003E003FE01FFC07FE005B
:101190003E001E001E003E3CFC3FF01F0000000011
:1011A0000000000000000000000000008007800731
:1011B0008007FF7FFF7F8007800780078007800709
:1011C00080078007800780078007C007FF03FF01B3
:1011D000000000000000000000000000000000000F
:1011E0000000000000001E3C1E3C1E3C1E3C1E3C3D
:1011F0001E3C1E3C1E3C1E3C1E3C3E3C7E3CFE3EBD
:10120000FE1FDE0F000000000000000000000000D4
:101210000000000000000000000007F00F780F78C9
:101220001E3C1E3C1E3E3C1E3C1E780F780FF00FED
:10123000F007F007E003E0030000000000000000FA
:10124000000000000000000000000000000003F0AB
:10125000E3F1E3F3E7F3F7F3F7F3F77F777F7F7FCC
:101260007F7F7F7F3E3E3E3E3E3E3E3E0000000092
:10127000000000000000000000000000000000006E
:1012800000000F7C1E3E3C3E3C1FF80FF007F007AD
:10129000E003F007F807F80F7C1E3E3E1F3C1F7866
:1012A000000000000000000000000000000000003E
:1012B00000000000000007F80F780F7C1E3C1E3C69
:1012C0003C1E3C1E3C1F780FF80FF007F007E003B0
:1012D000E003C003C003C0038007800F007F00004D
:1012E00000000000000000000000FF3FFF3F1F0063
:1012F0003E007C00F800F001E003C007800F001FF3
:10130000001E003CFF7FFF7F000000000000000087
:101310000000FE01E003C003C003C003C003E001FE
:10132000E001E001C001C003803F803FC003C00175
:10133000E001E001E001C003C003C003C003E0031B
:10134000FE017E000000C001C001C001C001C0015B
:10135000C001C001C001C001C001C001C001C00185
:10136000C001C001C001C001C001C001C001C00175
:10137000C001C001C001C0010000C03FE003E001A6
:10138000E001E001E001C001C003C003C001E001D1
:10139000FE00FE00E001C001C003C003C001E00187
:1013A000E001E001E001E003C03F003F0000000079
:1013B000000000000000000000000000000000002D
:1013C00000000000073FC77FE773FFF17EF00000D9
:1013D000000000000000000000000000000000000D
:1013E00000000000000000003E5B4F5B3E003E6BD3
:1013F0004F6B3E001C3E7C3E1C00183C7E3C18009F
:101400001C577D571C001C5E7F5E1C0000183C189A
:101410000000FFE7C3E7FF00001824180000FFE703
:10142000DBE7FF0030483A060E002629792926001E
:10143000407F05050700407F05253F005A3CE73CFB
:101440005A007F3E1C1C0800081C1C3E7F00142212
:101450007F2214005F5F005F5F0006097F017F004D
:10146000006689956A0060606060600094A2FFA2D7
:10147000940008047E04080010207E201000080854
:101480002A1C0800081C2A0808001E101010100052
:101490000C1E0C1E0C0030383E383000060E3E0E7E
:1014A000060000000000000000005F0000000007D0
:1014B00000070000147F147F1400242A7F2A1200E2
:1014C00023130864620036495620500000080703C1
:1014D0000000001C224100000041221C00002A1CC8
:1014E0007F1C2A0008083E080800008070300000B9
:1014F00008080808080000006060000020100804C8
:1015000002003E5149453E0000427F4000007249C2
:10151000494946002141494D33001814127F1000FB
:101520002745454539003C4A4949310041211109C7
:101530000700364949493600464949291E0000003E
:101540001400000000403400000000081422410094
:101550001414141414000041221408000201590943
:1015600006003E415D594E007C1211127C007F49FD
:10157000494936003E41414122007F4141413E0000
:101580007F49494941007F09090901003E41415114
:1015900073007F0808087F0000417F410000204061
:1015A000413F01007F08142241007F40404040003D
:1015B0007F021C027F007F0408107F003E414141F2
:1015C0003E007F09090906003E4151215E007F0966
:1015D0001929460026494949320003017F010300C9
:1015E0003F4040403F001F2040201F003F40384008
:1015F0003F00631408146300030478040300615976
:10160000494D4300007F4141410002040810200081
:10161000004141417F00040201020400404040407B
:1016200040000003070800002054547840007F2841
:1016300044443800384444442800384444287F0057
:1016400038545454180000087E09020018A4A49CC1
:1016500078007F080404780000447D4000002040AA
:10166000403D00007F102844000000417F40000002
:101670007C04780478007C080404780038444444EE
:101680003800FC182424180018242418FC007C08B6
:101690000404080048545454240004043F44240023
:1016A0003C4040207C001C2040201C003C4030403E
:1016B0003C004428102844004C9090907C004464E6
:1016C000544C440000083641000000007700000040
:1016D0000041360800000201020402003C262326D5
:1016E0003C001EA1A16112003A4040207A0038540B
:1016F00054555900215555794100215454784100E1
:101700002155547840002054557940000C1E5272E7
:10171000120039555555590039545454590039550A
:10172000545458000000457C41000002457D4200B1
:101730000001457C4000F0292429F000F0282528EC
:10174000F0007C54554500002054547C54007C0A21
:10175000097F49003249494932003248484832003D
:10176000324A484830003A4141217A003A4240200A
:101770007800009DA0A07D003944444439003D40DC
:1017800040403D003C24FF242400487E494366003D
:101790002B2FFC2F2B00FF0929F62000C0887E0983
:1017A00003002054547941000000447D410030483A
:1017B000484A3200384040227A00007A0A0A720011
:1017C0007D0D19317D002629292F28002629292958
:1017D000260030484D402000380808080800080856
:1017E000080838002F10C8ACBA002F102834FA00AF
:1017F00000007B00000008142A14220022142A147E
:101800000800AA005500AA00AA55AA55AA0000007F
:1018100000FF0000101010FF0000141414FF00005F
:101820001010FF00FF001010F010F000141414FC52
:1018300000001414F700FF000000FF00FF00141464
:10184000F404FC00141417101F0010101F101F00C8
:101850001414141F0000101010F000000000001FEE
:1018600010001010101F1000101010F010000000D9
:1018700000FF1000101010101000101010FF1000CA
:10188000000000FF14000000FF00FF0000001F1018
:1018900017000000FC04F4001414171017001414AF
:1018A000F404F4000000FF00F700141414141400F2
:1018B0001414F700F70014141417140010101F105C
:1018C0001F00141414F414001010F010F0000000A5
:1018D0001F101F000000001F1400000000FC140077
:1018E0000000F010F0001010FF10FF00141414FF9F
:1018F00014001010101F0000000000F01000FFFF87
:10190000FFFFFF00F0F0F0F0F000FFFFFF0000002D
:10191000000000FFFF000F0F0F0F0F003844443886
:1019200044007C2A2A3E14007E0202060600027E43
:10193000027E02006355494163003844443C040080
:10194000407E201E200006027E02020099A5E7A527
:1019500099001C2A492A1C004C7201724C00304A22
:101960004D4D3000304878483000BC625A463D004A
:101970003E49494900007E0101017E002A2A2A2AA7
:101980002A0044445F44440040514A4440004044DB
:101990004A5140000000FF010300E080FF0000000A
:1019A00008086B6B0800361236243600060F090F44
:1019B0000600000018180000000010100000304061
:1019C000FF010100001F01011E0000191D17120078
:1019D000003C3C3C3C000000000000002020202097
:1019E0002020202020202020202020202000202017
:1019F0002020202020202020202020202020200007
:101A000020202020202020202020202020202020D6
:101A100020004D616C666F726D656420436F6D6D63
:101A2000616E6400436F6D706C65746552637664BB
:101A3000436D640D0A003C2D507265737320746F02
:101A40002072657365742074696D650024422C539F
:101A5000232C5374232A20202020202020202020E3
:101A60002000546F2052782042494E415259206440
:101A70006174613A2020200024412C53232C53749C
:101A8000232A202020202020202020202000546FE6
:101A900020527820415343494920646174613A20BF
:101AA0002020200053746172747570210D0A004D5E
:101AB000696E54656D703A2020202020202020205F
:101AC00020202020004D617854656D703A20202040
:101AD00020202020202020202020004C69676874CE
:101AE0002F42617474286C75782C562920202000B0
:101AF00048756D69642F54656D702852482C4329D0
:101B0000202020200050726573732F54656D70285B
:101B100050612C43292020202000416363656C2004
:101B20004D65617375726528582C592C5A290045EA
:101B30006C61707365642054696D652020202020DD
:101B4000202020003C2D52535420202020202020F3
:101B50002020436F6E742D3E004D6F7374207265AC
:101B600063656E742074696D653A202020200053EF
:101B7000746172742054696D653A20202020202001
:101B8000202020200046696E64696E67446174619C
:101B9000426F756E6472792E2E2E0046696E6469EE
:101BA0006E6754696D65426F756E6472792E2E2E64
:101BB0000053746172742055702120202020202051
:101BC0002020202020002020202020202020202035
:101BD00020202020202020004D616C666F726D65F2
:101BE0006420436F6D6D616E640059595959204DE1
:101BF0004D204444204848204D4D20535320200080
:101C00003C2D546F67676C6520202020416476610D
:101C10006E63652D3E005365742074696D65207791
:101C200069746820627574746F6E730020202020C0
:101C3000202D206F72202D202020202020202020E9
:101C4000200024542C79792C6D6D2C64642C6868E8
:101C50002C6D6D2C73732A0053656E642054696D6E
:101C600065206F76657220554152543A2000EAE0B3
:101C7000F6E0E370FF27E65FF94F2FEF38E02C7FA7
:101C8000E217F30758F48EED9DEAAEEBBFEE8193B9
:101C90009193A193B193E217F307C8F311241FBEE8
:101CA000CFEFD8E0DEBFCDBF13E0A0E0B1E0E2EAC5
:101CB000F5E602C005900D92A83EB107D9F726E0DF
:101CC000A8EEB3E001C01D92AA30B207E1F70E946E
:101CD0006D260C94CF320C94000088EB0E94E01C1F
:101CE00087E00E94111D0C94091DCF93DF9388EBB0
:101CF0000E94E01C81E00E94111D0E94091D88EBDA
:101D00000E94E01C80E20E94111D0E94091D89EBC7
:101D10000E94E01C0E94221DC82FD0E0DC2FCC279F
:101D20000E942C1DC82B0E94091DCE01DF91CF916E
:101D30000895CF93DF931F92CDB7DEB7698321E07B
:101D4000AE014F5F5F4F682F8EEE0E945E150F90C1
:101D5000DF91CF910895242F30E0AB01682F8EEEF4
:101D60000C9492150F931F93EAEEF3E00481158112
:101D700026813781019311932193319324E0EE332F
:101D8000F207A1F760933A0470933B0480933C04FC
:101D900090933D04EAEEF3E060E070E0CB01019146
:101DA000119121913191600F711F821F931F24E0C7
:101DB000EE33F207A1F725E130E040E050E00E9469
:101DC000CB2ECA01B9011F910F910895CF93DF93D4
:101DD00000D0CDB7DEB719821A8242E0BE016F5F34
:101DE0007F4F8AEA0E94AB0E898190E0982F882766
:101DF0002A81822B9093E1048093E00442E0BE01AB
:101E00006F5F7F4F8CEA0E94AB0E898190E0982F24
:101E100088272A81822B9093C9048093C80442E0CA
:101E2000BE016F5F7F4F8EEA0E94AB0E898190E00A
:101E3000982F88272A81822B9093D1048093D004F5
:101E400042E0BE016F5F7F4F80EB0E94AB0E898145
:101E500090E0982F88272A81822B9093D704809333
:101E6000D60442E0BE016F5F7F4F82EB0E94AB0E53
:101E7000898190E0982F88272A81822B9093C7042C
:101E80008093C60442E0BE016F5F7F4F84EB0E94E7
:101E9000AB0E898190E0982F88272A81822B90931E
:101EA000CF048093CE0442E0BE016F5F7F4F86EB8C
:101EB0000E94AB0E898190E0982F88272A81822B7F
:101EC0009093D3048093D20442E0BE016F5F7F4FB2
:101ED00088EB0E94AB0E898190E0982F88272A8199
:101EE000822B9093CD048093CC0442E0BE016F5FBF
:101EF0007F4F8AEB0E94AB0E898190E0982F882754
:101F00002A81822B9093C5048093C40442E0BE01D1
:101F10006F5F7F4F8CEB0E94AB0E898190E0982F12
:101F200088272A81822B9093D5048093D40442E0A1
:101F3000BE016F5F7F4F8EEB0E94AB0E898190E0F8
:101F4000982F88272A81822B9093CB048093CA04F0
:101F50000F900F90DF91CF910895CF92DF92EF9283
:101F6000FF92CF93DF9300D0CDB7DEB719821A82EC
:101F70006EE284EF0E94990E8FE097E20197F1F7ED
:101F800000C0000042E0BE016F5F7F4F86EF0E94FD
:101F9000AB0E2981822F90E0A0E0B0E02227382FFD
:101FA000492F5A2F8A81282B8091CE049091CF04FB
:101FB000281B390B41095109A091C604B091C704EF
:101FC0000E94F92E6B017C014FE0F594E794D794C1
:101FD000C7944A95D1F76091D4047091D5048827AD
:101FE00077FD8095982F5BE0660F771F881F991FFC
:101FF0005A95D1F72091CA043091CB04442737FD7C
:102000004095542F2C0D3D1D4E1D5F1D0E94CB2E63
:102010002C0D3D1D4E1D5F1D2093D8043093D90417
:102020004093DA045093DB040F900F90DF91CF912F
:10203000FF90EF90DF90CF9008954F925F926F9254
:102040007F928F929F92AF92BF92CF92DF92EF9248
:10205000FF92CF93DF93CDB7DEB72B970FB6F894EF
:10206000DEBF0FBECDBF19821A821B820E94AD0F48
:1020700064EB84EF0E94990E8FE59DE60197F1F7DE
:1020800000C0000043E0BE016F5F7F4F86EF0E94FB
:10209000AB0E8090D8049090D904A090DA04B09050
:1020A000DB0490EA891A9FE0990AA108B108A5010A
:1020B0009401C501B4010E94632E2B013C01E09103
:1020C000E004F091E104A091D004B091D1040E9409
:1020D000042F6B017C013DE0F594E794D794C794FD
:1020E0003A95D1F7A091D204B091D304A301920103
:1020F0006CE055954795379527956A95D1F70E94DD
:10210000042FBB2797FDB095AB2FC80ED91EEA1E32
:10211000FB1EA2E0CA0ED11CE11CF11CB2E0F5943A
:10212000E794D794C794BA95D1F7B0E8DB0EE11CD9
:10213000F11CA091D604B091D704A70196010E948A
:10214000F92EDC01CB012FE0B695A79597958795E1
:102150002A95D1F788879987AA87BB878981CA8002
:10216000D12CE12CF12CFE2CED2CDC2CCC24E82AFB
:102170008B81C82A46E0F594E794D794C7944A9592
:10218000D1F7CF01AA2797FDA095BA2F52E0880F6B
:10219000991FAA1FBB1F5A95D1F78C839D83AE83CD
:1021A000BF83A091CC04B091CD04A30192010E9401
:1021B000042F2B013C0167E1759467945794479471
:1021C0006A95D1F7A091C804B091C904A501940102
:1021D0000E94042FEBE09595879577956795EA9592
:1021E000D1F7460E571E681E791E8C819D81AE81E7
:1021F000BF81840D951DA61DB71DC81AD90AEA0A0C
:10220000FB0AA4EDB0E3A70196010E94F92E97FD09
:102210000DC0660F771F881F991F288539854A854D
:102220005B850E94A92E49015A010CC02885398579
:102230004A855B850E94A92E49015A01880C991C88
:10224000AA1CBB1C9927B7FC9A958B2D7A2D692D5A
:102250009B01AC010E94632E9B01AC01AEEDBBE083
:102260000E94F92E6C01FF24D7FCF094EF2CA3E41C
:10227000B3EEA50194010E94072FBB2797FDB095EF
:10228000AB2FC80ED91EEA1EFB1E9FECC90E9EE0A6
:10229000D91EE11CF11CA4E0F594E794D794C794EF
:1022A000AA95D1F7C80CD91CEA1CFB1CC092DC040F
:1022B000D092DD04E092DE04F092DF04C701B601A3
:1022C0000E94B20E6093DC047093DD048093DE0400
:1022D0009093DF042B960FB6F894DEBF0FBECDBFF0
:1022E000DF91CF91FF90EF90DF90CF90BF90AF90B4
:1022F0009F908F907F906F905F904F9008950E9475
:10230000AD0F8091D8049091D904A091DA04B091D6
:10231000DB040896A11DB11DF4E0B595A79597952E
:102320008795FA95D1F708950E941D106091DC04FD
:102330007091DD048091DE049091DF040895CF93C5
:102340000E94E60E0E94AD0FC5E10E941D10C15013
:10235000E1F7CF910895CF92DF92EF92FF926B0158
:102360007C016130710522E08207910568F0299AAD
:102370008FE79AE126E0815090402040E1F700C0CD
:102380000000299880E01CC08CB58F7D8CBD82E058
:102390008A95F1F700C05F9883E00E94611A8E2D44
:1023A0000E94611A8D2D0E94611A8C2D0E94611A63
:1023B00080E00E94611A5F9A92E09A95F1F700C05E
:1023C000FF90EF90DF90CF9008958CB58F7D8CBDFE
:1023D0005F9885E08A95F1F7000086E00E94611A17
:1023E0008AE18A95F1F700C05F9A08958CB58F7DD8
:1023F0008CBD5F9882E08A95F1F700C089EB0E945E
:10240000611A5F9A8AE18A95F1F700C008958CB548
:102410008F7D8CBD5F9882E08A95F1F700C085E0E2
:102420000E94611A8FEF0E94611A92E09A95F1F76B
:1024300000C05F9A0895AF92BF92CF92DF92EF9261
:10244000FF920F931F93CF93DF936B017C015A018F
:10245000E9016130710522E08207910520F4013025
:1024600081E01807A8F0299A9FEF24E38CE09150AF
:1024700020408040E1F700C0000029989FEF24E34E
:102480008CE0915020408040E1F700C00000EBCF8D
:102490000E94E5110E94071281FFFCCF8CB58F7D51
:1024A0008CBD5F9892E09A95F1F700C082E00E949F
:1024B000611A8E2D0E94611A8D2D0E94611A8C2D39
:1024C0000E94611A7501EC0EFD1EE701CE018E1906
:1024D0009F098017910720F489910E94611AF6CF15
:1024E00022E02A95F1F700C05F9A0E94071280FD52
:1024F000FCCF81E0DF91CF911F910F91FF90EF9082
:10250000DF90CF90BF90AF900895CF93DF931F924D
:10251000CDB7DEB719828CB58F7D8CBD5F9882E018
:102520008A95F1F700C08BEA0E94611A85E50E9446
:10253000611A85E50E94611A85E50E94611A80E0B2
:102540000E94611A89838DE08A95F1F700005F9AF5
:102550000E94E5110E94071281FFFCCF0E94E51145
:1025600089810F90DF91CF910895CF92DF92EF9202
:10257000FF920F931F93CF93DF93CDB7DEB7629790
:102580000FB6F894DEBF0FBECDBFAC016B0180E18A
:10259000E2E0F1E0DE01119601900D928A95E1F7FB
:1025A000498B5A8B0E9485128091B8049091B9048E
:1025B000A091BA04B091BB04992720E031E0281B18
:1025C000390BC601821B930B49895A89009751F533
:1025D0002115314039F56091B8047091B9048091AA
:1025E000BA049091BB0400E011E020E030E00E94CA
:1025F0001B128091B8049091B904A091BA04B091D3
:10260000BB049F5FAF4FBF4FA170BB278093B8043F
:102610009093B904A093BA04B093BB04E12CFF24B7
:10262000F39432C0181619064CF16091B8047091F9
:10263000B9048091BA049091BB04860120E030E097
:102640000E941B128091B8049091B904A091BA0421
:10265000B091BB048C0D9D1DA11DB11DA170BB27A8
:102660008093B8049093B904A093BA04B093BB04C8
:10267000E12CFF24F394EC18FD0806C086E291E0FB
:102680000E94041EE12CF12C4091B8045091B90431
:102690006091BA047091BB04405F5F4F6F4F7F4FF2
:1026A000413051056240710558F000E110E020E032
:1026B00030E0AE014F5F5F4F60E070E0CB010FC0D4
:1026C0006091B8047091B9048091BA049091BB04F0
:1026D00000E110E020E030E0AE014F5F5F4F0E946C
:1026E0001B120E94F611C70162960FB6F894DEBF66
:1026F0000FBECDBFDF91CF911F910F91FF90EF9053
:10270000DF90CF9008952F923F924F925F926F92F9
:102710007F928F929F92AF92BF92CF92DF92EF9271
:10272000FF920F931F93CF93DF93CDB7DEB76397DD
:102730000FB6F894DEBF0FBECDBF1C014983409099
:10274000B8045090B9046090BA047090BB0421E0C2
:10275000421A5108610871086E870E9485128981AA
:102760008D506E85C62ED12CDD82CC82823008F051
:102770005AC0A601E4E0440F551FEA95E1F7810134
:102780001F821E82A12CB12CEE24EA94F12C812C04
:10279000912C1B821A82C12CD12C80E190E02981DE
:1027A000821B9109AA2797FDA095BA2F481A590AAA
:1027B0006A0A7B0AC301B2016A197B09810991097E
:1027C00081709927488B598B0E94AB11D8018C934B
:1027D000F801E058FF4F10820F5F1F4F282F30E0A5
:1027E00048895989281539051CF04901BE81BA83E9
:1027F0002E153F0514F0970102C0EE80EB826FEFBB
:10280000C61AD60AA40EB51E6E817F81EC80FD80AB
:102810006E0D7F1D88E7C816D10409F493C07F832D
:102820006E837901C7CFCC80DD8064E0CC0CDD1CE9
:102830006A95E1F7D986C8863B8A2A8A00E010E0CB
:1028400040E050E02FEF3FE73F832E8388248394BE
:1028500070E8972E1B821A82A12CB12CC9802C2DD6
:1028600030E080E190E0821B930BAA2797FDA095B2
:10287000BA2F73016201C81AD90AEA0AFB0ACA868A
:10288000DB86EC86FD868FE090E0821B930BAA2707
:1028900097FDA095BA2F481A590A6A0A7B0A6A015D
:1028A000E12CF12C6A857B858C859D856C197D09D1
:1028B0008E099F0981709927488B598B0E94AB1113
:1028C0002A893B89D9018C93C301B2016C197D0916
:1028D0008E099F09817099272E873F870E94AB112F
:1028E000EA89FB89E058FF4F80832E853F85F901F7
:1028F0002081EA89FB893196FB8BEA8B30E0382B0B
:10290000488959892815390514F049010A83CE8070
:10291000DF802C153D0514F0960101C00B836FEF8D
:10292000A61AB60AC884D9844C0D5D1D8C819D8180
:10293000800F911F68E7A616B10421F08C013F8338
:102940002E83ADCFB401621B730B77FF03C071956B
:102950006195710949814C504230F0F5611571055E
:1029600051F4F10180E090E042E341930196893710
:102970009105D9F776C065367105D8F0CB0164E6CC
:1029800070E00E94812E462F7101E0E0F0E08B01A3
:102990001127D7018C9190E0821B930BB8010E9404
:1029A000952ED7016D937D013196E837F10589F7B2
:1029B00059C084E690E00E94812E462FF10180E00C
:1029C00090E05081521B549F502D11245193019639
:1029D00088379105B1F746C06115710551F4F101D1
:1029E00080E090E042E34193019689379105D9F761
:1029F00038C06536710510F1CB0164E670E00E94C5
:102A0000812E462FF101E12CF12C8B011127DF01E2
:102A1000A058BF4F8C9190E0982F88275081852B2C
:102A2000821B930BB8010E94952E6193BFEFEB1AA6
:102A3000FB0A68E7E616F10451F714C084E690E05B
:102A40000E94812E462FF10180E090E05081521BC0
:102A5000549F502D11245193019689379105B1F758
:102A600001C041E0F101E758FF4FCA80C0823196B2
:102A7000DB80D0823196808231961082319620831D
:102A8000319610823196408363960FB6F894DEBF7C
:102A90000FBECDBFDF91CF911F910F91FF90EF90AF
:102AA000DF90CF90BF90AF909F908F907F906F906E
:102AB0005F904F903F902F900C94F611CF92DF9241
:102AC000EF92FF920F931F93CF93DF931F92CDB797
:102AD000DEB78A01E22E69830E94E01C6981862F9D
:102AE0000E94111DF82E68018C2D801B8E1568F434
:102AF000F601E01BF10BD6018D916D01EE51FB4FFC
:102B0000808380810E94111DEFCF0E94091D8F2DAF
:102B10000F90DF91CF911F910F91FF90EF90DF9079
:102B2000CF9008958F929F92AF92BF92CF92DF92F3
:102B3000EF92FF920F931F93CF93DF931F92CDB726
:102B4000DEB7182F7A01490169830E94E01C698170
:102B5000862F0E94111D81E0810F0E94071DA82E63
:102B600082E08816910430F0B12C6401E1E0CE1AC5
:102B7000D10805C00E942C1D8093E20412C02B2DA9
:102B800030E089010E511B4F2C153D0530F40E9499
:102B9000221DF8018083B394F2CF0E942C1DF8010E
:102BA00080830E94091D80E0282F30E02815390518
:102BB00058F4F901EE51FB4F9081D701A20FB31FDA
:102BC0009C9310828F5FF0CF8A2D0F90DF91CF9171
:102BD0001F910F91FF90EF90DF90CF90BF90AF903B
:102BE0009F908F900895CF93DF9300D0CDB7DEB73D
:102BF000198221E0AE014F5F5F4F6BE18EE10E94D1
:102C00005E1580E4898321E0AE014F5F5F4F6BE189
:102C10008EE10E945E1580E3898321E0AE014F5F63
:102C20005F4F6EE18EE10E945E1583E0898321E0B3
:102C3000AE014F5F5F4F61E28EE10E945E1580EE54
:102C4000898321E0AE014F5F5F4F6BE18EE10E940F
:102C50005E150F900F90DF91CF9108950F931F9302
:102C6000CF93DF93CDB7DEB728970FB6F894DEBFCA
:102C70000FBECDBF8C01198221E0AE014F5F5F4FC7
:102C80006BE18EE10E945E1526E030E0AE014F5F01
:102C90005F4F61E28EE10E9492158981888782E010
:102CA000898321E0AE014F5F5F4F61E28EE10E94B8
:102CB0005E1580EC898321E0AE014F5F5F4F6BE1D1
:102CC0008EE10E945E158FE39CE90197F1F700C049
:102CD000000026E030E0AE014F5F5F4F66E08EE11E
:102CE0000E9492152A8130E0322F22278981282BD9
:102CF00094E0359527959A95E1F7F8013183208383
:102D00002C8130E0322F22278B81282B54E03595FF
:102D100027955A95E1F7338322832E8130E0322FB5
:102D200022278D81282B74E0359527957A95E1F738
:102D300035832483198221E0AE014F5F5F4F6BE141
:102D40008EE10E945E158BE0898321E0AE014F5F2A
:102D50005F4F61E28EE10E945E1580EA898321E087
:102D6000AE014F5F5F4F6BE18EE10E945E152896CA
:102D70000FB6F894DEBF0FBECDBFDF91CF911F918C
:102D80000F9108954F925F926F927F928F929F92D0
:102D9000AF92BF92CF92DF92EF92FF920F931F9369
:102DA000CF93DF93CDB7DEB76F970FB6F894DEBF42
:102DB0000FBECDBF782E7B01FE01319681E1DF0190
:102DC0001D928A95E9F71F8E1E8E1D8E1C8E1B8EFE
:102DD0001A8E198E188E1F8A1E8A1D8A1C8A1B8ABB
:102DE0001A8A8CB58F7D8CBD439AB0E1BA95F1F704
:102DF00080E80E94611A9AE1692E2FE0C22ED12C40
:102E000001E010E033E0A32EB12C4E01E1E18E0E83
:102E1000911C8A899B894A9708F0D0C0EE89FF8966
:102E2000EE0DFF1D808190E08097689E9001699E65
:102E3000300D11243D8F2C8F8C8D9D8DEA89FB895F
:102E4000E80FF91FEE0FFF1FEA56FF4F859194918F
:102E50009F8F8E8F1B8E1A8E8A8D9B8D429708F0C6
:102E60006EC08A8D9B8D4097D8F52E8D3F8D8A8DB3
:102E70009B8DA601481B590BD801042E02C0AA0F36
:102E8000BB1F0A94E2F7CD0182239323E88DF98DCD
:102E9000892BA1F08C899D8921E030E02C0F3D1F0A
:102EA000E20FF31FA80102C0440F551F8A95E2F7F5
:102EB000CA01809590818923808312C08C899D8965
:102EC000A1E0B0E0AC0FBD1FEA0FFB1F980102C0EC
:102ED000220F331F8A95E2F7C9019081982B9083C6
:102EE0008A8D9B8D4097A0F0E88DF98D8C899D8906
:102EF00041E050E04C0F5D1FE40FF51FD80102C008
:102F0000AA0FBB1F8A95E2F7CD019081982B908381
:102F10008C899D89079741F41D8A1C8A888D998D1B
:102F20000196998F888F05C08C899D8901969D8B0C
:102F30008C8B8A8D9B8D01969B8F8A8F8DCF888DF0
:102F4000998D0F9740F48E899F8901969F8B8E8B68
:102F50001B8E1A8E5ECF8C899D89F50102C0EE0F03
:102F6000FF1F8A95E2F7CF019889982B988B8CB533
:102F700080628CBD8A899B89870D0E94611A9E019F
:102F80002F5F3F4F2901D2018D912D010E94611ABF
:102F900048145904C1F780E00E94611A8A899B890C
:102FA00001969B8B8A8B1F8A1E8A1B8E1A8E198E06
:102FB000188E1D8A1C8A1F8E1E8E2BCF80E00E94C9
:102FC000611AB8E0BA95F1F743986F960FB6F89486
:102FD000DEBF0FBECDBFDF91CF911F910F91FF904C
:102FE000EF90DF90CF90BF90AF909F908F907F90A9
:102FF0006F905F904F9008956F927F929F92AF92E3
:10300000BF92CF92DF92EF92FF920F931F93CF93D5
:10301000DF93CDB7DEB761970FB6F894DEBF0FBE72
:10302000CDBF982E5B01FE01319681E1DF011D923B
:103030008A95E9F78CB58F7D8CBD439AB0E1BA953E
:10304000F1F780E80E94611A00E010E080E090E073
:10305000A0E0B0E040E050E020E030E0EE24E39477
:10306000F12C6E01E1E1CE0ED11CF501EA0FFB1F40
:103070006081F90176E0679FE00DF11D1124EE51AA
:10308000FC4EE4912530310581F4E1E0F0E0EC0FF5
:10309000FD1FE40FF51F60819701082E01C0220F6C
:1030A0000A94EAF7622B608334C0B701002E02C095
:1030B000660F771F0A94E2F7F0E06E237F23082E55
:1030C00002C0660F771F0A94E2F73701082E01C08D
:1030D000660C0A94EAF7672B61F0662D6095E1E0D3
:1030E000F0E0EC0FFD1FE40FF51F70816723608394
:1030F0000AC061E070E06C0F7D1F640F751FFB015B
:103100007080762870822530310518F42F5F3F4F8C
:1031100003C0119620E030E08730910510F401964D
:1031200028C04F5F5F4F4031510508F18CB5806278
:103130008CBD892D800F0E94611ABE016F5F7F4F89
:103140003B01D3018D913D010E94611A6C147D04F5
:10315000C1F780E00E94611A0F5F1F4F80E090E08E
:10316000A0E0B0E040E050E020E030E002C080E0CD
:1031700090E00830110508F478CF80E00E94611AD1
:10318000B8E0BA95F1F7439861960FB6F894DEBFB0
:103190000FBECDBFDF91CF911F910F91FF90EF90A8
:1031A000DF90CF90BF90AF909F907F906F900895E9
:1031B0008CB58F7D8CBD439A88E08A95F1F780EAC3
:1031C0000E94611A80E00E94611A98E09A95F1F7D6
:1031D00043988FE097E20197F1F700C0000008954F
:1031E0002F923F924F925F926F927F928F929F9217
:1031F000AF92BF92CF92DF92EF92FF920F931F9305
:10320000CF93DF93CDB7DEB764970FB6F894DEBFE8
:103210000FBECDBF5C016B01342E252E8CB58F7D8A
:103220008CBD439A30E13A95F1F780E80E94611A2B
:1032300066246394712C06E010E0EE24E394F12CF4
:103240004E0141E1840E911C84E690E086199709B5
:10325000B8010E94812E6A0D7B1DFB012081C801EF
:1032600086199709B8010E94812EF6E02F9F800DE4
:10327000911D11248E519C4EFC0184918983A32DB4
:10328000B22D20E04D9150E0E22FE695E695E695CF
:10329000822F8770F0E031964615570590F041E097
:1032A00050E04C0F5D1FE40FF51FA70102C0440F53
:1032B000551F8A95E2F7CA01809590818923808302
:1032C00010C041E050E04C0F5D1FE40FF51FA70157
:1032D00002C0440F551F8A95E2F7CA019081982BCE
:1032E00090832F5F283771F68CB580628CBD862D58
:1032F0000E94611ACE0101962C01F20181912F01E9
:103300000E94611A48145904C1F780E00E94611AB2
:10331000FFEF6F1A7F0A34E66316710409F094CF49
:1033200080E00E94611A48E04A95F1F74398B6019F
:1033300086E664960FB6F894DEBF0FBECDBFDF9170
:10334000CF911F910F91FF90EF90DF90CF90BF90A2
:10335000AF909F908F907F906F905F904F903F9035
:103360002F900C94FC17282FFC0180E031E39E2F56
:10337000921B961760F49191892798E087FF03C00C
:10338000880F832701C0880F9150C1F7F0CF8417B1
:1033900011F084E0089580E008950F931F93CF9378
:1033A000DF9300D000D0CDB7DEB78B01882319F0B2
:1033B0008130E1F038C023E030E0AE014F5F5F4F75
:1033C00065EE80E80E949215882331F08FEF9FEF21
:1033D000F801948783871AC0898190E0982F882705
:1033E0002A81822BF801948783871BC023E030E079
:1033F000AE014F5F5F4F63EE80E80E949215882315
:1034000039F08FEF9FEFF8019687858711E00CC0A8
:10341000898190E0982F88272A81822BF80196874E
:10342000858710E001C012E04B8162E0CE01019679
:103430000E94B319812B0F900F900F900F90DF9186
:10344000CF911F910F910895CF93DF931F92CDB726
:10345000DEB7198221E0AE014F5F5F4F6EEF80E86B
:103460000E945E1591E0811101C090E0892F0F90BC
:10347000DF91CF9108958C7FBC0180E090E00E94A5
:10348000C42C20E030E04AEF5AE30E94A62D20E051
:1034900030E040EC50E40E94602B08958C7FBC012A
:1034A00080E090E00E94C42C22E538EB4FE25BE321
:1034B0000E94A62D26E636E64BE352E40E94602BDE
:1034C0000895CF93DF931F92CDB7DEB789838981AB
:1034D0008EBD0DB407FEFDCF8EB5898389810F9017
:1034E000DF91CF9108958CB580618CBD8CB58160E2
:1034F0008CBD8CB58D7F8CBD8DB581608DBD8CB53F
:10350000877F8CBD8CB58B7F8CBD8CB580648CBD6A
:1035100008954F925F926F927F928F929F92AF9297
:10352000BF92CF92DF92EF92FF920F931F93CF93B0
:10353000DF93EA0120E831E541E050E00E94A92E46
:1035400069017A012B013C01ECE38E2E912CA12C18
:10355000B12CA50194010E94A92E6883C301B20178
:1035600020E13EE040E050E00E94A92E122FA5018C
:1035700094010E94A92E29831A83C701B6016C5FAA
:103580007F4F8F4F9F4F27E030E040E050E00E9498
:10359000A92E6C8322EB37E0E4E6F0E000E911E0CD
:1035A000590183E0A822BB24A114B10481F5C9010B
:1035B000BF010E94952E892B39F4C901B8010E94E0
:1035C000952E892B09F09BC08EE6C81681E0D8069F
:1035D000E104F10418F1C901BF010E94952E892B65
:1035E00029F08EE691E0A0E0B0E00AC0C901B80180
:1035F0000E94952E892BA9F38DE691E0A0E0B0E022
:10360000C81AD90AEA0AFB0A2F5F3F4FC9CF8DE6D5
:10361000C81681E0D806E104F10470F7C9018C56A0
:10362000974099878887DE82CD821F82C90164E630
:1036300070E00E94952EFC01C90160E971E00E94D2
:10364000952E1CE0A114B10439F4309719F041E033
:1036500050E004C00097D9F340E050E00F81202FE4
:1036600030E0149FD001159FB00D1124A20FB31F9D
:10367000AA0FBB1FA85CBE4F4D915C91662757FDFA
:103680006095762FC416D506E606F70620F1A1143C
:10369000B10439F4309719F041E050E004C00097CC
:1036A000D9F340E050E0149FD001159FB00D1124D4
:1036B000A20FB31FAA0FBB1FA85CBE4F4D915C9118
:1036C000662757FD6095762FC41AD50AE60AF70AD1
:1036D0000F5F0F83B7CFC394CB821A86DF91CF9150
:1036E0001F910F91FF90EF90DF90CF90BF90AF9020
:1036F0009F908F907F906F905F904F9008958DE690
:10370000C81681E0D806E104F10408F064CF86CF42
:103710002F923F924F925F926F927F928F929F92E1
:10372000AF92BF92CF92DF92EF92FF920F931F93CF
:10373000CF93DF9300D01F92CDB7DEB73C01162F99
:10374000F42EC982A22FB0E020E833E341EE51E02D
:103750000E94F92E4B015C0120E030E0E0E0F0E057
:103760006D01260181E0481A510894E6292E312C7A
:1037700024153505E4F4D901A60DB71DBB83AA8332
:10378000CD0183709927892B79F4CD01B1010E9475
:10379000812E892B41F48A819B8160E971E00E942E
:1037A000812E892B09F431962F5F3F4FE1CF202FD7
:1037B00030E0A0E1BEE00E94EA2E1B012C01B9819D
:1037C0002B0E311C411C511C2E2D30E0ACE3B0E01F
:1037D0000E94EA2E260E371E481E591E280C391C40
:1037E0004A1C5B1C9F01442737FD4095542F8F2DA9
:1037F00090E00197AA2797FDA095BA2F280F391FAF
:103800004A1F5B1F60E871E581E090E00E94632E33
:10381000260E371E481E591E123008F44CC06C0C80
:103820007D1CC30183709927892BC9F4C30164E609
:1038300070E00E94812E892B39F4C30160E971E0A8
:103840000E94812E892B59F4123061F431E020E07E
:10385000ECE1EF1508F030E0832F922F05C080E0F7
:1038600090E002C081E090E028E1289F7001299F4C
:10387000F00C1124C701885C9E4F7C01E0E0F0E071
:10388000012F10E001501109E017F107A4F4DF0146
:10389000AA0FBB1FAE0DBF1D0D90BC91A02D20E83F
:1038A00031E541E050E00E94042F260E371E481EED
:1038B000591E3196E9CFC201B1010F900F900F90C0
:1038C000DF91CF911F910F91FF90EF90DF90CF90FC
:1038D000BF90AF909F908F907F906F905F904F9030
:1038E0003F902F900895BF92CF92DF92EF92FF9278
:1038F0000F931F93CF93DF936B017C01EA0120E8C4
:1039000033E341EE51E00E94A92E39872887C70191
:10391000B60120E831E541E050E00E94A92E2B835A
:1039200018E1129FB02C1124C701B60120E13EE03E
:1039300040E050E00E94A92E022F0B190A83C70114
:10394000B6012CE330E040E050E00E94A92E822F27
:103950008B19019F8019112489836883DF91CF918E
:103960001F910F91FF90EF90DF90CF90BF9008953F
:103970001092B90082E08093B800089594EA909381
:10398000BC009091BC0097FFFCCF9091B900987F4C
:10399000983021F0903111F081E008958093BB00C0
:1039A00084E88093BC008091BC0087FFFCCF8091AD
:1039B000B900887F883111F0803471F780E0089574
:1039C00024EA34E844E92093BC009091BC0097FFBE
:1039D000FCCF9091B900987F983011F0903199F711
:1039E0008093BB003093BC009091BC0097FFFCCF4C
:1039F0009091B900987F903211F0983539F4409346
:103A0000BC009091BC0094FDFCCFDDCF08950C94D8
:103A1000BE1C84E98093BC008091BC0084FDFCCF77
:103A200008958093BB0084E88093BC008091BC0023
:103A300087FFFCCF9091B900987F81E0983209F41C
:103A400080E0089584EC8093BC008091BC0087FFE7
:103A5000FCCF8091BB00089584E88093BC008091E6
:103A6000BC0087FFFCCF8091BB0008951F920F928E
:103A70000FB60F9211242F938F939F93EF93FF9381
:103A80008091C0009091C6008871E0914104EF5F81
:103A9000EF7120914004E21771F0E0934104F0E0EF
:103AA000EC5BFB4F90839A3239F490913E049F5F18
:103AB00090933E0401C082E080933F04FF91EF9118
:103AC0009F918F912F910F900FBE0F901F9018957F
:103AD0001F920F920FB60F9211248F939F93EF9323
:103AE000FF939091430480914204981769F0E0910C
:103AF0004204EF5FEF73E0934204F0E0EC59FB4FB8
:103B000080818093C60005C08091C1008F7D809325
:103B1000C100FF91EF919F918F910F900FBE0F9079
:103B20001F90189510924304109242041092410481
:103B30001092400497FF04C022E02093C0009F77BA
:103B40009093C5008093C40088E98093C10086E00B
:103B50008093C20008959091410480914004981789
:103B600081F0E0914004EF5FEF71E0934004F0E0FA
:103B7000EC5BFB4F808190913F0410923F0490E0FA
:103B8000089580E091E00895EF92FF920F931F93C4
:103B9000CF93DF937B018C01C0E0D0E0CE15DF0531
:103BA00044F40E94AB1DF80181938F0121968A3263
:103BB000A9F7F8011082CE01DF91CF911F910F91EB
:103BC000FF90EF900895909143049F5F9F73209121
:103BD00042049217E1F3E92FF0E0EC59FB4F8083A8
:103BE000909343048091C10080628093C100089546
:103BF000CF93DF93EC018991882319F00E94E31D94
:103C0000FACFDF91CF910895CF93DF93FC01849198
:103C1000EF012196882321F00E94E31DFE01F7CFDA
:103C2000DF91CF91089584B18F6284B985B18963A2
:103C300085B987B18D6087B988B1896088B98AB143
:103C40008A6D8AB98BB18A6D8BB90895EAE7F0E085
:103C5000808187608083EBE7F0E080818083ECE700
:103C6000F0E080818E64808380818F7D80830895E1
:103C7000109270008091B60080628093B60010921E
:103C8000B2008091B10087608093B1008091B6004E
:103C90008171E1F7B89A0895E8E6F0E080818260EA
:103CA000808382E080936C000895E8E6F0E08081F4
:103CB0008460808380E280936D000895439A4398E6
:103CC000409A0895AB01BC0180E090E00C94C731AC
:103CD000AB01BC018091B2049091B3040E94C73142
:103CE0008091B2049091B304049693709093B304BE
:103CF0008093B2048091B2049091B304892B31F483
:103D000084E090E09093B3048093B20481E008953E
:103D1000AF92BF92CF92DF92EF92FF920F931F93D9
:103D2000CF93DF9300D0CDB7DEB784E090E09A83E5
:103D30008983A12CB12CC12CD12C760109811A8147
:103D4000011584E0180788F4CE0101960E94C13164
:103D5000C616D706E806F90608F458010C5F1F4F8F
:103D60001A8309836B017C01E9CFC5010F900F9085
:103D7000DF91CF911F910F91FF90EF90DF90CF9047
:103D8000BF90AF9008958F929F92AF92BF92CF92C3
:103D9000DF92EF92FF921F93CF93DF93C0E0C12C8D
:103DA000D12C76013EE0832E912CA12CB12CD4E0B5
:103DB000C701B6010E94AB11182F8F3021F4CF5FDD
:103DC000C03110F045C0C0E0C701B601A5019401A3
:103DD0000E94A92E672B682B692BE1F48091B10416
:103DE000811754F41093B104C092AC04D092AD0486
:103DF000E092AE04F092AF048091B004811754F4C5
:103E00001093B004C092A804D092A904E092AA042E
:103E1000F092AB04D701C6019F71AA27BB27892B5B
:103E20008A2B8B2B19F485B18D2785B98FEFC81A92
:103E3000D80AE80AF80AC114D10482E0E806F104BD
:103E400009F0B6CF2A9860E070E080E090E002C010
:103E5000B601C701DF91CF911F91FF90EF90DF90E6
:103E6000CF90BF90AF909F908F9008958091640005
:103E70008E7F8093640080917A00806880937A00BE
:103E800080917C008E6480937C0080917A008064B5
:103E900080937A0080917A0086FDFCCF8091780033
:103EA0008091790080917A00806480937A0080917B
:103EB0007A0086FDFCCF2091780090917900809166
:103EC0007A008F7780937A0080916400816080937C
:103ED000640030E0392B40E050E064EB7BE281E1AC
:103EE00090E00E94CB2EC9010895CF92DF92EF920D
:103EF000FF926B017C0120E830E040E057EC0E942B
:103F00009B2D87FD0E94182F20E03FEF4FEF56E4D6
:103F1000C701B6010E94272C1816A4F320E030E058
:103F2000A901C701B6010E949B2D20E030E040E0CE
:103F30005FE387FD05C0C701B6010E94612B04C085
:103F4000C701B6010E94602B0E94932CCB01FF9009
:103F5000EF90DF90CF9008954F925F926F927F9293
:103F60008F929F92AF92BF92CF92DF92EF92FF9289
:103F7000CF93DF93EC016A817B81882777FD809561
:103F8000982F0E94C62C20E030E040E85AE30E94BF
:103F9000A62D6B017C016C817D81882777FD809542
:103FA000982F0E94C62C20E030E040E85AE30E949F
:103FB000A62D4B015C01A7019601C701B6010E9425
:103FC000A62D2B013C01A5019401C501B4010E945D
:103FD000A62D9B01AC01C301B2010E94612B0E947E
:103FE0000D2E2B013C0168817981882777FD809512
:103FF000982F0E94C62C20E030E040E85AE30E944F
:10400000A62DA30192010E94D42B20E030E044E3CE
:1040100053E40E94A62D2AED3FE049E450E40E94BB
:104020002B2C0E94751F9E8B8D8BA5019401C701BF
:10403000B6010E94D42B20E030E044E353E40E9418
:10404000A62D2AED3FE049E450E40E942B2C0E946B
:10405000751F9C8B8B8BDF91CF91FF90EF90DF9042
:10406000CF90BF90AF909F908F907F906F905F9018
:104070004F9008952F923F924F925F926F927F924E
:104080008F929F92AF92BF92CF92DF92EF92FF9268
:104090000F931F93CF93DF93CDB7DEB7A3970FB6E0
:1040A000F894DEBF0FBECDBF8C012B017E0125E150
:1040B000E20EF11C8FE0D7011D928A95E9F784E1A9
:1040C000E2E1F1E0DE01119601900D928A95E1F7AF
:1040D00088E59CE19F938F931F930F930E94CD2FB0
:1040E000B80184E10E94FC1782E49CE19F938F93C6
:1040F0001F930F930E94CD2FB8018EE10E94FC17F1
:104100008CE29CE19F938F931F930F930E94CD2F7E
:10411000B80188E20E94FC1786E19CE19F938F938F
:104120001F930F930E94CD2FB80182E30E94FC17CA
:1041300080E09CE19F938F931F930F930E94CD2F5C
:10414000B80186E40E94FC178AEE9BE19F938F934F
:104150001F930F930E94CD2FB8018AE50E94FC1790
:1041600080916800897F809368000FB6F894DEBF65
:104170000FBECDBF212C312CD12C4FE5C42E54E7DE
:10418000652E51E0752E68EDA62E6BE1B62E76EC0D
:10419000872E7BE1972E4D9B13C0F8E0FD1510F0A4
:1041A000D39401C0D12CF701E30DF11DD0822FE78C
:1041B00039EA83E0215030408040E1F700C0000040
:1041C000319B21C0339481E0820D843041F08730EF
:1041D00031F08A3021F08D3011F0803111F482E01D
:1041E000820DE1E0F0E0EC0FFD1FE80FF11DC08251
:1041F0009FE7A9EAB3E09150A040B040E1F700C0CA
:104200000000282ED12C8C891F928F938B891F92AE
:104210008F938A891F928F9389891F928F938889A0
:104220001F928F938F851F928F938E851F928F93EE
:104230008D851F928F938C851F928F938B851F92F4
:104240008F938A851F928F9389851F928F9388857C
:104250001F928F938F811F928F938E811F928F93C6
:104260008D811F928F938C811F928F938B811F92D0
:104270008F938A811F928F9389811F928F937F9250
:104280006F921F930F930E94AB2F0FB6F894DEBF6F
:104290000FBECDBFBE016F5F7F4F84E60E94FC174B
:1042A0008AA11F928F9389A11F928F9388A11F9239
:1042B0008F938F8D1F928F938E8D1F928F938D8DE5
:1042C0001F928F938C8D1F928F938B8D1F928F9344
:1042D0008A8D1F928F93898D1F928F93888D1F9245
:1042E0008F938F891F928F938E891F928F938D89C1
:1042F0001F928F93A1EBB1E0BF93AF931F930F93E6
:104300000E94AB2F0FB6F894DEBF0FBECDBFB80131
:104310008EE60E94FC1780913E04882309F486C033
:1043200066E170E0C8010E94C41DD8018C918432FE
:1043300009F07CC011968C91843509F055C062E774
:1043400071E0C8010E94622F62E771E080E090E0B6
:104350000E94622F0E941D2FF2019187808762E7E1
:1043600071E080E090E00E94622F0E941D2FD20138
:1043700017968C9362E771E080E090E00E94622FD4
:104380000E941D2FF201848362E771E080E090E0DB
:104390000E94622F0E941D2FD20112968C9362E719
:1043A00071E080E090E00E94622F0E941D2FF201D8
:1043B000818363EE71E080E090E00E94622F0E94B2
:1043C0001D2FD2018C9318962C911897225BC82E22
:1043D0001196EC90119712960C91129714964C919D
:1043E000149717966C9174C0BF92AF921F930F935E
:1043F0000E94CD2FB80184E60E94FC17BFEFE3EDC9
:10440000F0E3B150E040F040E1F700C000009F92BF
:104410008F921F930F930E94CD2FB80184E60E94C4
:10442000FC170FB6F894DEBF0FBECDBF3DE03315CD
:1044300008F0B1CE809168008660809368008FEFAD
:10444000381609F44AC05E894F896D8988EE93E079
:10445000689F9001699F300D112494E6599F200DAB
:10446000311D1124888D280F311DAAE04A9F200D8F
:10447000311D1124F20131872087898D6A8DFAE080
:104480008F9F600D1124D20117966C938B8D4C8DEC
:10449000BAE08B9F400D1124F20144838D8D0E8D67
:1044A000FAE08F9F000D1124D20112960C938F8D8C
:1044B000E8A0BAE08B9FE00C1124F201E18289A10F
:1044C000CAA0FAE08F9FC00C1124D201CC92225BCB
:1044D00082EB97E00E94881B03C060E070E0CB0194
:1044E000A3960FB6F894DEBF0FBECDBFDF91CF917C
:1044F0001F910F91FF90EF90DF90CF90BF90AF9002
:104500009F908F907F906F905F904F903F902F90F3
:1045100008950F931F93CF93DF93EC0181EB9BE101
:104520009F938F93DF93CF930E94CD2FBE0184E1A1
:104530000E94FC178BE99BE19F938F93DF93CF93AE
:104540000E94CD2FBE018EE10E94FC170E94881EA2
:104550009093B3048093B20480E090E00E94C13154
:104560006093B4047093B5048093B6049093B70439
:1045700082EB94E00E94C1310091B4041091B50423
:104580002091B6043091B704600F711F821F931FF2
:104590004FEF55E00E94891A6091B4047091B50400
:1045A0008091B6049091B70443EF54E00E94891AB9
:1045B00085E89BE19F938F93DF93CF930E94CD2F4C
:1045C000BE0188E20E94FC170E94C31E6093B804DB
:1045D0007093B9048093BA049093BB048091B8049B
:1045E0009091B904A091BA04B091BB042DB73EB725
:1045F000245F3F4F0FB6F8943EBF0FBE2DBF892BEF
:104600008A2B8B2BA1F04091B8045091B904609192
:10461000BA047091BB044F5051096109710940936C
:10462000B8045093B9046093BA047093BB040E9419
:10463000D8188091B2049091B3049F938F9385EE24
:1046400091E09F938F93DF93CF930E94AB2FBE0196
:104650008AE00E94FC178FE69BE19F938F93DF9384
:10466000CF930E94CD2FBE0184E10E94FC17809160
:10467000F3041F928F938091F4041F928F93809183
:10468000F5041F928F938091F6041F928F9380916F
:10469000FA0490E001969F938F938091FB04909190
:1046A000FC048459984F9F938F930AEF11E01F9356
:1046B0000F93DF93CF930E94AB2FBE018EE10E9438
:1046C000FC1789E59BE19F938F93DF93CF930E9423
:1046D000CD2FBE0188E20E94FC178091FF051F923A
:1046E0008F93809100061F928F93809101061F92F5
:1046F0008F93809102061F928F938091060690E01F
:1047000001969F938F938091070690910806845994
:10471000984F9F938F931F930F93DF93CF930E9494
:10472000AB2F8DB79EB78E960FB6F8949EBF0FBE77
:104730008DBFBE0182E30E94FC174091B8045091E6
:10474000B9046091BA047091BB047F936F935F9337
:104750004F9384E192E09F938F93DF93CF930E94D6
:10476000AB2FBE018CE30E94FC178091B80490919E
:10477000B904A091BA04B091BB0440E050E062E0FB
:1047800070E0481B590B6A0B7B0BE4E0769567954C
:1047900057954795EA95D1F77F936F935F934F9322
:1047A00088E292E09F938F93DF93CF930E94AB2F89
:1047B000BE0186E40E94FC1784E49BE19F938F93E3
:1047C000DF93CF930E94CD2FBE0184E60E94FC1799
:1047D00080916800897F80936800EDB7FEB774967A
:1047E0000FB6F894FEBF0FBEEDBF04E010E04D9B86
:1047F00038C00E94D81863EF74E0CE010E943A20BE
:104800006093B4047093B5048093B6049093B70496
:104810006091B4047091B5048091B6049091B7048E
:104820000E94621E1092C0041092C1041092C20431
:104830001092C3041093B3040093B2041092B8040E
:104840001092B9041092BA041092BB04FFE728E357
:1048500031E0F15020403040E1F700C0000081E03D
:1048600001C080E0319B0AC08FE798E3E1E081500E
:104870009040E040E1F700C0000082E0EFE1FEE49C
:104880003197F1F700C00000882309F4B0CF809180
:104890006800866080936800DF91CF911F910F912F
:1048A0000895EF92FF920F931F93CF93DF937C01B4
:1048B000EB018A018FE29BE19F938F93FF92EF922E
:1048C0000E94CD2FB7018AE00E94FC178AE19BE18C
:1048D0009F938F93FF92EF920E94CD2FB7018EE1AD
:1048E0000E94FC1785E09BE19F938F93FF92EF92CC
:1048F0000E94CD2FB70182E30E94FC1780EF9AE15E
:104900009F938F93FF92EF920E94CD2FB70186E481
:104910000E94FC178BED9AE19F938F93FF92EF9289
:104920000E94CD2FB7018AE50E94FC178E898F93D4
:104930008D898F938C898F938B898F938DE392E0F0
:104940009F938F93FF92EF920E94AB2FB70181E06C
:104950000E94FC17F80181811F928F9382811F9220
:104960008F9383811F928F9381858F9380858F93FF
:104970008AE492E09F938F93FF92EF920E94AB2F75
:104980008DB79EB788960FB6F8949EBF0FBE8DBFA9
:10499000B70184E10E94FC178D818F938C818F93E6
:1049A0008B818F938A818F9389818F9388818F9355
:1049B00088E692E09F938F93FF92EF920E94AB2F35
:1049C000B70188E20E94FC172A85822F992787FD6C
:1049D00090959F932F938F818F938E818F9309E76B
:1049E00012E01F930F93FF92EF920E94AB2FB7013B
:1049F0008CE30E94FC178E858F938D858F938C8519
:104A00008F938B858F9324E832E03F932F93FF920F
:104A1000EF920E94AB2FB70180E50E94FC178A89B4
:104A20008F9389898F9388898F938F858F931F9315
:104A30000F93FF92EF920E94AB2FEDB7FEB7B296A5
:104A40000FB6F894FEBF0FBEEDBFB70184E60E941B
:104A5000FC178091700081701F928F932FE832E0D5
:104A60003F932F93FF92EF920E94AB2FB7018EE6F8
:104A70000E94FC174091B8045091B9046091BA04A7
:104A80007091BB047F936F935F934F9326EA32E05C
:104A90003F932F93FF92EF920E94AB2F8DB79EB75B
:104AA0000E960FB6F8949EBF0FBE8DBFB70188E774
:104AB000DF91CF911F910F91FF90EF900C94FC1715
:104AC0008F929F92AF92BF92CF92DF92EF92FF921E
:104AD0000F931F93CF93DF938C010E94D81885EC1E
:104AE0009AE19F938F931F930F930E94CD2FB8014C
:104AF0008AE00E94FC172091B104822F992787FD3C
:104B000090959F932F93FBEBAF2EF2E0BF2EBF92B9
:104B1000AF921F930F930E94AB2FB80184E10E94C4
:104B2000C2166091B8047091B9048091BA04909152
:104B3000BB04C090AC04D090AD04E090AE04F09003
:104B4000AF046C197D098E099F09C12CA1EEDA2EE4
:104B5000E12CF12CA70196010E94A92E5F934F939F
:104B60003F932F93C3ECD2E0DF93CF931F930F9328
:104B70000E94AB2FB8018AE20E94FC178FEA9AE1EB
:104B80009F938F931F930F930E94CD2FB8018CE3B7
:104B90000E94FC172091B004822F992787FD9095E1
:104BA0009F932F93BF92AF921F930F930E94AB2FAF
:104BB000B80186E40E94C2166091B8047091B904ED
:104BC0008091BA049091BB048090A8049090A904AD
:104BD000A090AA04B090AB04681979098A099B09CE
:104BE000A70196010E94A92E5F934F933F932F93A5
:104BF000DF93CF931F930F930E94AB2F8DB79EB778
:104C000084960FB6F8949EBF0FBE8DBFB8018CE599
:104C10000E94FC176091C0047091C1048091C2048D
:104C20009091C304B8E2CB2EDD24D394E12CF12C77
:104C3000A70196010E94A92EA7019601261B370BFA
:104C4000480B590BDA01C901BF93AF939F932F9380
:104C50008BED92E09F938F931F930F930E94AB2F46
:104C6000B8018EE60E94FC174091BC045091BD042F
:104C70006091BE047091BF048091C0049091C10402
:104C8000A091C204B091C304481B590B6A0B7B0B63
:104C90007F936F935F934F9380EF92E09F938F93F7
:104CA0001F930F930E94AB2F4DB75EB7405F5F4FCE
:104CB0000FB6F8945EBF0FBE4DBFB80188E7DF9115
:104CC000CF911F910F91FF90EF90DF90CF90BF9009
:104CD000AF909F908F900C94FC17CF93DF93CDB73C
:104CE000DEB7ED970FB6F894DEBF0FBECDBFF894D8
:104CF000809164008B7F809364008091640088625F
:104D00008093640083B7866083BF0E94131E8FE187
:104D10009EE40197F1F700C0000083E090E00E945C
:104D2000921D0E94B81C0E94381E0E944C1E0E94B8
:104D3000551E0E94731A0E94261E78940E945E1EC1
:104D40000E94D81884EA9AE10E94041EAFECB7E0F2
:104D50001197F1F700C000000E94F3150E949F1107
:104D60000E94241AEFECF7E03197F1F700C0000041
:104D70000E946D0E0E94D8180E948512CE010196E5
:104D80000E9489220E94F6118091700081608093B8
:104D900070000E94D818FFE728E331E0F15020406E
:104DA0003040E1F700C0000066E073E080E40E945C
:104DB000FC1782E080936400812C99249394A12CA9
:104DC000B12C8E010F5F1F4F83B7816083BF889521
:104DD00083B78E7F83BF8091A704813009F0A2C082
:104DE0008091A40481119EC0CE0184960E942E164B
:104DF0000E9494112AE030E040E050E00E94CB2E67
:104E00002AA73BA74CA75DA70E947F118EA7BE01D2
:104E10006C5D7F4F80E00E94CD19BE016C5D7F4FBD
:104E200081E00E94CD190E94750E9CAB8BAB8FA5C3
:104E300098A90E943B1A0E94982C78AB6FA789A969
:104E40009AA90E944E1A0E94932C7AAB69AB80916A
:104E5000A504813021F40E94361F9EAB8DAB29A999
:104E60008091B104821794F42093B1048091C0041E
:104E70009091C104A091C204B091C3048093AC048A
:104E80009093AD04A093AE04B093AF048091B004AE
:104E9000821794F42093B0048091C0049091C104CF
:104EA000A091C204B091C3048093A8049093A90474
:104EB000A093AA04B093AB04CE0184960E94AC1FC9
:104EC0001092A7049CA18DA1F501E250FB4F9083A5
:104ED00081839EA18FA19283838398A589A59483C2
:104EE00085839AA58BA5968387839FA588A990879C
:104EF00081879BA98CA9928783878EA56AE00E94EF
:104F0000732E8158848789A985879DA98EA9968744
:104F1000878780E1A80EB11CA814B90418F081E0BD
:104F20008093A6048091A6048130C1F492E0A91672
:104F3000B10490F0B5018EEF94E00E94B5124C01DF
:104F40006091C0047091C1048091C2049091C30427
:104F50000E94681EA12CB12C1092A6048091A4047A
:104F6000813021F4C8010E9460252ECF8091A404D5
:104F70008230D1F44EE061E08EEF94E00E94831322
:104F80000E94D81880917D051F928F938CE193E049
:104F90009F938F931F930F930E94AB2F4EEF54E07C
:104FA000B80182E393E01EC08091A404833009F02D
:104FB00055C049E061E08EEF94E00E9483130E94A7
:104FC000D81880917D051F928F938CE193E09F9379
:104FD0008F931F930F930E94AB2F4EEF54E0B801B5
:104FE00089E693E00E94F01880917A0590E0982F6E
:104FF000882720917905822B9F938F9380917C0540
:1050000090E0982F882720917B05822B9F938F9388
:1050100083E493E09F938F931F930F930E94AB2F92
:10502000B80181E70E94FC17809177051F928F934A
:10503000809178051F928F9386E593E09F938F93DD
:105040001F930F930E94AB2FB80189E70E94FC17B2
:105050000FB6F894DEBF0FBECDBFB6CE8091A404CC
:10506000843091F547E061E08EEF94E00E94831375
:105070000E94D81880917D051F928F938CE193E058
:105080009F938F931F930F930E94AB2F4EEF54E08B
:10509000B8018BE793E00E94F01880917A0590E0C8
:1050A000982F882720917905822B9F938F93809149
:1050B0007C0590E0982F882720917B05822B9F9379
:1050C0008F938DE893E0A6CF8091A4048530D1F42E
:1050D0004BE061E08EEF94E00E9483130E94D818A9
:1050E00080917D051F928F938CE193E09F938F9326
:1050F0001F930F930E94AB2F4EEF54E0B80180EA4C
:1051000093E070CF8091A4048630B9F40E94D8183F
:105110006091C0047091C1048091C2049091C30455
:105120004FEF55E00E94731C4FEF55E0BE016C5DE0
:105130007F4FC8010E94512447CE8091A40487303C
:1051400009F042CE809164008D7F809364000E94BC
:10515000D8188EE89AE19F938F931F930F930E9424
:10516000CD2FB80184E10E94FC1788E79AE19F9354
:105170008F931F930F930E94CD2FB8018EE10E9451
:10518000FC1782E69AE19F938F931F930F930E94DF
:10519000CD2FB80182E30E94FC178CE49AE19F9323
:1051A0008F931F930F930E94CD2FB8018CE30E9421
:1051B000FC1786E39AE19F938F931F930F930E94AE
:1051C000CD2FB80186E40E94FC1780916800897F8A
:1051D000809368000FB6F894DEBF0FBECDBF1DAE42
:1051E00031994CC180913E04882309F4E4C062E106
:1051F00070E0C8010E94C41D382E292EB8018AE033
:105200000E94FC178981843209F0B3C062E771E023
:10521000C8010E94622F9CAF8BAF62E771E080E013
:1052200090E00E94622F0E943B2F6B017C0163EE95
:1052300071E080E090E00E94622F0E943B2F2B01E2
:105240003C0180913E041F928F937F926F925F92F8
:105250004F92FF92EF92DF92CF92EBADFCAD818146
:105260001F928F93A2EBB3E0BF93AF931F930F9363
:105270000E94AB2FB80184E60E94FC17ABADBCAD19
:1052800011968C910FB6F894DEBF0FBECDBF81345E
:1052900009F041C07F926F925F924F92FF92EF921E
:1052A000DF92CF92A7ECB3E0BF93AF931F930F931E
:1052B0000E94AB2FC8010E94F81D0E9485120FB6F4
:1052C000F894DEBF0FBECDBFC414D504E604F704C6
:1052D000E8F4C701B6010E94AB111F928F93AFE6AD
:1052E000B1E0BF93AF931F930F930E94AB2FC80100
:1052F0000E94F81DFFEFCF1ADF0AEF0AFF0A0F9096
:105300000F900F900F900F900F90DECF84E29AE1F4
:105310000E94041E2EC0823499F40E948512C41487
:10532000D504E604F70428F5C701B6010E94AB11C5
:105330000E94E31D2FEFC21AD20AE20AF20AEFCF4F
:10534000A2E1BAE1BF93AF931F930F930E94CD2FB9
:10535000B80180E50E94FC17FFEF23ED30E3F15028
:1053600020403040E1F700C000000F900F900F90F8
:105370000F90B8018AE00E94FC1780913E04815092
:1053800080933E0480913E042F923F921F928F9310
:10539000A6EDB3E0BF93AF931F930F930E94AB2F83
:1053A000B80180E50E94FC170E94F6110FB6F89430
:1053B000DEBF0FBECDBF4D9B13CF809170008E7F9F
:1053C000809370000E94D818A0E0BAE1BF93AF9319
:1053D0001F930F930E94CD2FB80184E10E94FC1708
:1053E000AEEEB9E1BF93AF931F930F930E94CD2F01
:1053F000B8018EE10E94FC17ACEDB9E1BF93AF9309
:105400001F930F930E94CD2FB80188E20E94FC17D2
:105410006FEF75E0C8010E943A206093C00470935A
:10542000C1048093C2049093C3048091C0049091FE
:10543000C104A091C204B091C3044091B40450913E
:10544000B5046091B6047091B704841B950BA60B4C
:10545000B70B8093C0049093C104A093C204B0938F
:10546000C3048091700081608093700021E02DAFB3
:105470000FB6F894DEBF0FBECDBFB2CE2DAD222346
:1054800009F4B0CE0E94D81880916800866080939D
:1054900068008091640082608093640095CC1F92C4
:1054A0000F920FB60F9211242F933F934F935F9358
:1054B0006F937F938F939F93AF93BF93EF93FF93DC
:1054C0008091C0049091C104A091C204B091C30422
:1054D0000896A11DB11D8093C0049093C104A093B0
:1054E000C204B093C3046091C0047091C104809160
:1054F000C2049091C30428E231E040E050E00E94F1
:10550000A92E672B682B692B19F481E08093A704DF
:105510006091C0047091C1048091C2049091C30451
:1055200020E13EE040E050E00E94A92E672B682B6E
:10553000692B11F41092A4046091C0047091C1040D
:105540008091C2049091C30420E43AEF41E050E01E
:105550000E94A92E672B682B692B19F081E080939C
:10556000A5044091BC045091BD046091BE047091AB
:10557000BF048091C0049091C104A091C204B09175
:10558000C304481759076A077B0749F40E94D818D3
:1055900066E073E080E40E94FC171092A404FF917F
:1055A000EF91BF91AF919F918F917F916F915F919B
:1055B0004F913F912F910F900FBE0F901F90189514
:1055C0001F920F920FB60F9211248F939F93AF9358
:1055D000BF93809101018823E9F0319B20C0109294
:1055E00001018091A404883010F081E003C0809113
:1055F000A4048F5F8093A4048091A404833020F0DE
:10560000809168008B7F03C08091680084608093E4
:10561000680005C0319903C081E0809301018FE1EA
:105620009EE40197F1F700C000008091A404882354
:1056300019F081E08093A6048091C0049091C10488
:10564000A091C204B091C3044096A11DB11D8093E6
:10565000BC049093BD04A093BE04B093BF04BF915B
:10566000AF919F918F910F900FBE0F901F90189543
:105670001F920F920FB60F9211248F939F938091D8
:105680000001882359F04D9B0EC08091700091E07D
:105690008927809370001092000105C04D9903C0C6
:1056A00081E0809300018FE19EE40197F1F700C053
:1056B00000009F918F910F900FBE0F901F90189533
:1056C0005058BB27AA270ED0FCC1EDD130F0F2D143
:1056D00020F031F49F3F11F41EF4BDC10EF4E095AB
:1056E000E7FBB3C1E92FFED180F3BA176207730756
:1056F0008407950718F071F49EF516C20EF4E09534
:105700000B2EBA2FA02D0B01B90190010C01CA017B
:10571000A0011124FF27591B99F0593F50F4503E26
:1057200068F11A16F040A22F232F342F4427585F18
:10573000F3CF469537952795A795F0405395C9F730
:105740007EF41F16BA0B620B730B840BBAF09150E8
:10575000A1F0FF0FBB1F661F771F881FC2F70EC087
:10576000BA0F621F731F841F48F48795779567955A
:10577000B795F7959E3F08F0B3CF9395880F08F043
:105780009927EE0F9795879508958DD158F080E869
:1057900091E009F49EEF8ED128F040E851E059F4F1
:1057A0005EEF09C058C1C0C1E92FE0789BD168F312
:1057B000092E052AC1F3261737074807590738F07D
:1057C0000E2E07F8E02569F0E025E0640AC0EF63DB
:1057D00007F8009407FADB01B9019D01DC01CA0159
:1057E000AD01EF9347D06DD10AD05F91552331F0D1
:1057F0002BED3FE049E450FD49EC63CF0895DF9382
:10580000DD27B92FBF7740E85FE316161706480774
:105810005B0710F4D92F93D19F938F937F936F934E
:105820003AD2E8E6F0E01AD14CD12F913F914F9156
:105830005F9198D1DD2349F09058A2EA2AED3FE02C
:1058400049EC5FE3D0785D274DDFDF913AC1D9D0D5
:1058500008F481E008950CD034C12CD140F023D15C
:1058600030F021F45F3F19F0F0C051115EC1F3C078
:1058700039D198F39923C9F35523B1F3951B550BEF
:10588000BB27AA2762177307840738F09F5F5F4F13
:10589000220F331F441FAA1FA9F333D00E2E3AF054
:1058A000E0E830D091505040E695001CCAF729D06E
:1058B000FE2F27D0660F771F881FBB1F26173707BD
:1058C0004807AB07B0E809F0BB0B802DBF01FF27ED
:1058D00093585F4F2AF09E3F510568F0B6C025C12E
:1058E0005F3FECF3983EDCF3869577956795B79527
:1058F000F7959F5FC9F7880F911D9695879597F942
:105900000895E1E0660F771F881FBB1F62177307BA
:105910008407BA0720F0621B730B840BBA0BEE1FCF
:1059200088F7E095089504D06894B111FEC00895F9
:10593000E1D088F09F5790F0B92F9927B751A0F088
:10594000D1F0660F771F881F991F1AF0BA95C9F713
:1059500012C0B13081F0E8D0B1E00895E5C0672F02
:10596000782F8827B85F39F0B93FCCF386957795C3
:105970006795B395D9F73EF49095809570956195AC
:105980007F4F8F4F9F4F0895E89409C097FB3EF4D7
:1059900090958095709561957F4F8F4F9F4F99237C
:1059A000A9F0F92F96E9BB279395F69587957795FA
:1059B0006795B795F111F8CFFAF4BB0F11F460FFBA
:1059C0001BC06F5F7F4F8F4F9F4F16C0882311F012
:1059D00096E911C0772321F09EE8872F762F05C026
:1059E000662371F096E8862F70E060E02AF09A95C1
:1059F000660F771F881FDAF7880F9695879597F9B6
:105A00000895990F0008550FAA0BE0E8FEEF16164F
:105A10001706E807F907C0F012161306E407F507A2
:105A200098F0621B730B840B950B39F40A2661F016
:105A3000232B242B252B21F408950A2609F4A140B9
:105A4000A6958FEF811D811D089597F99F6780E8C6
:105A500070E060E008959FEF80EC0895DF93CF93AE
:105A60001F930F93FF92EF92DF927B018C0168945A
:105A700005C0DA2EEF0176D0FE01E894A5912591BC
:105A8000359145915591AEF3EF012CDEFE01970162
:105A9000A801DA9479F7DF90EF90FF900F911F91B2
:105AA000CF91DF91089500240A9416161706180660
:105AB0000906089500240A94121613061406050612
:105AC0000895092E0394000C11F4882352F0BB0FA3
:105AD00040F4BF2B11F460FF04C06F5F7F4F8F4F06
